{
  "contractName": "IotList",
  "abi": [
    {
      "constant": true,
      "inputs": [
        {
          "name": "",
          "type": "uint256"
        }
      ],
      "name": "transactions",
      "outputs": [
        {
          "name": "id",
          "type": "uint256"
        },
        {
          "name": "content",
          "type": "string"
        },
        {
          "name": "value",
          "type": "string"
        }
      ],
      "payable": false,
      "stateMutability": "view",
      "type": "function",
      "signature": "0x9ace38c2"
    },
    {
      "constant": true,
      "inputs": [],
      "name": "transactionCount",
      "outputs": [
        {
          "name": "",
          "type": "uint256"
        }
      ],
      "payable": false,
      "stateMutability": "view",
      "type": "function",
      "signature": "0xb77bf600"
    },
    {
      "inputs": [],
      "payable": false,
      "stateMutability": "nonpayable",
      "type": "constructor",
      "signature": "constructor"
    },
    {
      "anonymous": false,
      "inputs": [
        {
          "indexed": false,
          "name": "id",
          "type": "uint256"
        },
        {
          "indexed": false,
          "name": "content",
          "type": "string"
        },
        {
          "indexed": false,
          "name": "value",
          "type": "string"
        }
      ],
      "name": "TransactionCreated",
      "type": "event",
      "signature": "0x589c38255a0d1d93cfd9aa009b322b6f428a78067a880860b3368ff4475cee7d"
    },
    {
      "constant": false,
      "inputs": [
        {
          "name": "_content",
          "type": "string"
        },
        {
          "name": "_value",
          "type": "string"
        }
      ],
      "name": "createTransaction",
      "outputs": [],
      "payable": false,
      "stateMutability": "nonpayable",
      "type": "function",
      "signature": "0xfecc18b4"
    }
  ],
  "bytecode": "0x60806040526000805534801561001457600080fd5b506100986040805190810160405280600e81526020017f426c6f6f642050726573737572650000000000000000000000000000000000008152506040805190810160405280600381526020017f4c6f77000000000000000000000000000000000000000000000000000000000081525061009d640100000000026401000000009004565b6101a8565b60008054600190810180835560408051606081018252828152602080820188815282840188905293865284815291909420845181559151805192936100ea9390850192919091019061010d565b506040820151805161010691600284019160209091019061010d565b5050505050565b828054600181600116156101000203166002900490600052602060002090601f016020900481019282601f1061014e57805160ff191683800117855561017b565b8280016001018555821561017b579182015b8281111561017b578251825591602001919060010190610160565b5061018792915061018b565b5090565b6101a591905b808211156101875760008155600101610191565b90565b610542806101b76000396000f3fe6080604052600436106100565763ffffffff7c01000000000000000000000000000000000000000000000000000000006000350416639ace38c2811461005b578063b77bf6001461016a578063fecc18b414610191575b600080fd5b34801561006757600080fd5b506100856004803603602081101561007e57600080fd5b50356102cd565b604051808481526020018060200180602001838103835285818151815260200191508051906020019080838360005b838110156100cc5781810151838201526020016100b4565b50505050905090810190601f1680156100f95780820380516001836020036101000a031916815260200191505b50838103825284518152845160209182019186019080838360005b8381101561012c578181015183820152602001610114565b50505050905090810190601f1680156101595780820380516001836020036101000a031916815260200191505b509550505050505060405180910390f35b34801561017657600080fd5b5061017f610405565b60408051918252519081900360200190f35b34801561019d57600080fd5b506102cb600480360360408110156101b457600080fd5b8101906020810181356401000000008111156101cf57600080fd5b8201836020820111156101e157600080fd5b8035906020019184600183028401116401000000008311171561020357600080fd5b91908080601f016020809104026020016040519081016040528093929190818152602001838380828437600092019190915250929594936020810193503591505064010000000081111561025657600080fd5b82018360208201111561026857600080fd5b8035906020019184600183028401116401000000008311171561028a57600080fd5b91908080601f01602080910402602001604051908101604052809392919081815260200183838082843760009201919091525092955061040b945050505050565b005b600160208181526000928352604092839020805481840180548651600296821615610100026000190190911695909504601f810185900485028601850190965285855290949193929091908301828280156103695780601f1061033e57610100808354040283529160200191610369565b820191906000526020600020905b81548152906001019060200180831161034c57829003601f168201915b50505060028085018054604080516020601f60001961010060018716150201909416959095049283018590048502810185019091528181529596959450909250908301828280156103fb5780601f106103d0576101008083540402835291602001916103fb565b820191906000526020600020905b8154815290600101906020018083116103de57829003601f168201915b5050505050905083565b60005481565b60008054600190810180835560408051606081018252828152602080820188815282840188905293865284815291909420845181559151805192936104589390850192919091019061047b565b506040820151805161047491600284019160209091019061047b565b5050505050565b828054600181600116156101000203166002900490600052602060002090601f016020900481019282601f106104bc57805160ff19168380011785556104e9565b828001600101855582156104e9579182015b828111156104e95782518255916020019190600101906104ce565b506104f59291506104f9565b5090565b61051391905b808211156104f557600081556001016104ff565b9056fea165627a7a72305820f77341d08a80a351267a6f82a4efa2cbffb7ff5008688c81766f2b349fe9caab0029",
  "source": "// SPDX-License-Identifier: MIT\r\npragma solidity >=0.4.22 <0.9.0;\r\n\r\ncontract IotList {\r\n    uint public transactionCount = 0;\r\n\r\n    struct Transaction{\r\n        uint id;\r\n        string content;\r\n        string value;\r\n    }\r\n\r\n    mapping (uint => Transaction ) public transactions;\r\n\r\n    event TransactionCreated(\r\n        uint id,\r\n        string content,\r\n        string value\r\n    );\r\n\r\n    constructor() public{\r\n        createTransaction(\"Blood Pressure\", \"Low\");\r\n    }\r\n\r\n    function createTransaction(string memory _content, string memory _value) public {\r\n        transactionCount++;\r\n        transactions[transactionCount] = Transaction(transactionCount,_content,_value);\r\n    }\r\n}",
  "sourcePath": "C:/Users/scout/eth-iot-list/contracts/IotList.sol",
  "compiler": {
    "name": "solc",
    "version": "0.5.0+commit.1d4f565a.Emscripten.clang"
  },
  "schemaVersion": "3.0.1",
  "updatedAt": "2021-03-10T05:27:43.265Z",
  "devdoc": {
    "methods": {}
  },
  "userdoc": {
    "methods": {}
  }
}